:020000040002F8
:10300000B0780020153202001D320200F553020094
:1030100021320200233202002532020000000000AB
:103020000000000000000000000000002732020045
:1030300029320200000000002B3202002D32020073
:103040002D9D0200C99E0200ADD10200F1AB02002D
:1030500009AC02002F320200294B0200EDA602004B
:103060002F3202002F3202002F3202002F320200D4
:103070002F3202002F3202002F3202002F320200C4
:103080002F320200219F02002F3202002F32020055
:10309000A1AD02002F320200A9AD02002F320200C2
:1030A0002F3202002F3202002F3202002F32020094
:1030B0002F3202002F32020000000000000000004A
:1030C0002F3202002F3202002F3202002F32020074
:1030D0002F3202002F3202002F32020000000000C7
:1030E00000000000000000000000000000000000E0
:1030F00000000000000000000000000000000000D0
:1031000000000000000000000000000000000000BF
:1031100000000000000000000000000000000000AF
:10312000000000000000000000000000000000009F
:10313000000000000000000000000000000000008F
:10314000000000000000000000000000000000007F
:10315000000000000000000000000000000000006F
:10316000000000000000000000000000000000005F
:10317000000000000000000000000000000000004F
:10318000000000000000000000000000000000003F
:10319000000000000000000000000000000000002F
:1031A000000000000000000000000000000000001F
:1031B000000000000000000000000000000000000F
:1031C00000000000000000000000000000000000FF
:1031D00000000000000000000000000000000000EF
:1031E00000000000000000000000000000000000DF
:1031F00000000000000000000000000000000000CF
:10320000DFF80CD000F0D0F8004800473948030040
:10321000B07800200648804706480047FEE7FEE7F2
:10322000FEE7FEE7FEE7FEE7FEE7FEE7FEE7FEE776
:10323000FDBE0200013202000649074A08685043F9
:1032400043F23902104408604008704701490860A1
:1032500070470000642400206D4EC64140EA01031F
:103260009B0703D009E008C9121F08C0042AFAD23C
:1032700003E011F8013B00F8013B521EF9D2704700
:10328000D2B201E000F8012B491EFBD270470022A8
:10329000F6E710B513460A4604461946FFF7F0FF55
:1032A000204610BD30B504460020034600E05B1CFC
:1032B000934203D2E05CCD5C401BF8D030BD0346A6
:1032C00011F8012B00F8012B002AF9D1184670479C
:1032D0000EB5C10F80EAE0700844CA07002140F231
:1032E00033438DE80E000A460B4600F09CF803B00D
:1032F00000BDC1F30A5210B5C1F3130140F2FF3310
:1033000041F480119A4201DA002010BD40F23343AB
:103310009A42A2F2334203DC524200F034F810BD6C
:10332000904010BD2DE9F05F0546002092469B4677
:1033300088460646814640241BE0284641464746CB
:10334000224600F020F853465A46C01A914110D345
:1033500011461846224600F039F82D1A67EB01088D
:103360004F4622460120002100F030F817EB0009FB
:103370004E41201EA4F10104DFDC484631462A46B6
:103380004346BDE8F09F202A04DB203A21FA02F0F0
:103390000021704721FA02F3D040C2F1200291408F
:1033A0000843194670470000064C074D06E0E068E8
:1033B00040F0010394E8070098471034AC42F6D37C
:1033C000FFF722FFD8FD0300F8FD0300202A04DBED
:1033D000203A00FA02F1002070479140C2F1200328
:1033E00020FA03F319439040704700000348006837
:1033F00008B1012070470020FCE7000000040140F4
:103400000201015948E3010110B5141E73F10004D3
:1034100008DA401C41F1000192185B411A4301D1C6
:1034200020F0010010BD2DE9F04D92469B4611B1F0
:10343000B1FA81F202E0B0FA80F220329046FFF752
:10344000C5FF04460F4640EA0A0041EA0B01534615
:103450005A46084313D0114653EA010019D0C8F167
:1034600040025046FFF78FFF05460E46504659462C
:103470004246FFF7ABFF084305D0012004E0204699
:103480003946BDE8F08D0020054346EAE0762C433E
:1034900037430A986305E40AA0EB08000022FD0AFE
:1034A00044EA47540A3002D500200146E9E7010505
:1034B00010196941DDE9084500196941BDE8F04D81
:1034C000A2E72DE9F04D00231A461B1A8A4103DBBF
:1034D00000200146BDE8F08DC1F30A52C1F313018B
:1034E00041F480154FF0000BD10702D100186D4157
:1034F000521E0027044640F2FF11384601EB620AD3
:103500003E468046024600204FF48011FFF73BFF05
:10351000C2197141BB1846EB0100B4EB030C75EB0B
:10352000000C04D3E41A65EB000517460E46241977
:1035300008F101006D4180463428E3DDF91946EBBE
:103540000600091BA84103D24FF0FF32134601E0E9
:10355000002213461BEB070046EB0A51BDE8F04D75
:10356000FFF752BF70B58C1810F8015B15F0070318
:1035700001D110F8013B2A1106D110F8012B03E00C
:1035800010F8016B01F8016B5B1EF9D12B0705D414
:103590000023521E0DD401F8013BFAE710F8013B5D
:1035A000CB1A921C03E013F8015B01F8015B521E79
:1035B000F9D5A142D8D3002070BD00002DE9F0411B
:1035C00004460F46154698462C480088632804DABE
:1035D0002A480088401C2949088029480078062884
:1035E00048D2DFE800F00304052D2E2F00BF00BFF6
:1035F000201E01DB014600E041428EB240F2523013
:10360000864202DC17F5617F16DA1D480078401CFF
:103610001B49087040F25230864205DD00201749F0
:1036200008800A2007F0B2FC15480078032806D16C
:1036300000201249088002E000201149087019E0BA
:1036400000BF00BF684205B2B5F5487F11DD0C48E8
:103650000078401C0A49087008460078052808DDF3
:10366000002006490880092007F090FC002004494A
:10367000087000BF00BFBDE8F0810000E22100201B
:10368000E02100207CB511200F231422032100909B
:10369000012000F0ABFF122012F0A6F9152012F065
:1036A000A3F9152012F0C3FA122012F0C0FA002577
:1036B00000204149087000BF01A805F05BFAC8204E
:1036C0000DF0F2F9681CC5B2032D0CDD00203B495A
:1036D000087011200F23142203210090002000F015
:1036E00085FF00207CBD9DF80400332803D09DF8A1
:1036F00004001528E0D19DF80400152812D10120FE
:103700002D4908700FF040FD044611200F231422AC
:1037100003210090002000F069FF0CB90020E1E7D0
:103720000120DFE7002537E0002005F0C5FA044658
:1037300000260BE0C8200DF0B7F9022005F0BCFA16
:103740000440012C00D103E0701CC6B2032EF1DB53
:1037500000BF072005F037FA0440032005F016FBF0
:103760000440002005F089FA0440002005F067FAC3
:103770000440002005F045FA0440022005F0B2F8AC
:1037800004401F2005F020FB044004B106E0C820DF
:103790000DF08AF9681CC5B2052DC5DB00BF1120EC
:1037A0000F23142203210090002000F01FFF0CB90A
:1037B000002097E7012095E7B9230020C0210020D1
:1037C00010B5044600200B49087014B941200A497D
:1037D0008871200A0849C8710C720921064800F056
:1037E00029FA05494872200C88721421024806F013
:1037F0004FFE10BD4C230020D43D002038B51E489C
:1038000000884FF6FF71884234D069461A48008814
:1038100014F0DEFA044600BF25463DB100BF17A2F2
:103820004FF49E7128460AF025FE00BF00BF1BA181
:10383000002007F0C5F89DF80000C0F34000C8B9AB
:103840000DF050F917A1002007F0BAF801210A483D
:10385000008814F0FBFA0446082C0BD000BF254664
:103860003DB100BF05A240F2471128460AF002FE12
:1038700000BF00BF38BD0000102300202E2E5C6D5D
:103880006F75646C655C733131305F7372635C7348
:10389000313332636F6E6669672E630070616972DF
:1038A00031000000706169723200000010B586B00E
:1038B0000446A6208DF8040020128DF80500E0B221
:1038C0008DF80600032101A800F0A6F806B010BD8F
:1038D00070B504460E46154605480088A04206D13C
:1038E00004480570027831460348FFF7B7FC70BD05
:1038F0006223002065230020203E002070B505468D
:103900000C4613490978C1EBC10101EB4101114A91
:103910001144481C22462946FFF7A0FC0C480078B9
:10392000C0EBC00000EB40000A490C540848007886
:10393000401C07490870084600780A2190FBF1F204
:1039400001FB12000249087001200349087070BD94
:1039500077230020463E00207623002070B50546E0
:103960000C461A480078012801D0002070BD184884
:103970000078C0EBC00000EB40001649085C2070E6
:10398000227813480078C0EBC00000EB40000B46E3
:103990001844411C2846FFF761FC0D480078401C84
:1039A0000B490870084600780A2190FBF1F201FBF0
:1039B00012000749087008460078074909788842CC
:1039C00002D10020014908700120CFE776230020B2
:1039D00078230020463E00207723002010B586B0D3
:1039E0000446A7208DF804008DF80540022101A8A7
:1039F00000F012F800200649086007F0F1F90D20E8
:103A000007F0C4FA00200349087006B010BD00009A
:103A100050230020642300202DE9F04105460E4686
:103A2000002714E00C48807D012801D0BDE8F0811A
:103A30003246294608480BF000FF04461CB9142002
:103A40000DF032F8F2E7C8200DF02EF87F1C042F9D
:103A5000E8D300BFEAE70000083D002070B50B4640
:103A60001446002111E05A5C504000250AE000F0A5
:103A7000010626B140104AF20106704000E04010F5
:103A80006E1CF5B2082DF2DB491CA142EBD30612E5
:103A900006EB0026B0B270BD02460021142092FB56
:103AA000F0F0C1B2052901DB042070470846FCE7AD
:103AB00070B503460C461E49B1F90010C81A15F03E
:103AC00075FB06461B49B1F90010081B15F06EFB8B
:103AD00006441949B1F90010881A15F067FB35182A
:103AE000642D1DD9154800884FF6FD71884204DA0F
:103AF00012480088401C11490880114800884FF680
:103B0000FE71884204DA0E480088401C0C49088087
:103B10000A480088042803DD00200A490968087063
:103B200003480380034804800348028070BD0000FE
:103B3000B2230020B4230020B6230020A5230020B8
:103B4000B0230020AC23002010B5044620460EF020
:103B5000DBF80CF0B9FD0CF0F5FD10BD70B50446B6
:103B60000D46012C13D115480078022825D00220DB
:103B700012490870002012490968884706F0AEF81B
:103B80002B4601220A21282006F052F815E00B48A6
:103B90000078032811D00320084908700120012172
:103BA0008140084A430942F8231000BF002006F074
:103BB000C7FB012002490968884770BD4B230020DC
:103BC0002C23002080E100E00146B1F58C2F02D3C8
:103BD000B1F5FE2F06D90548814205D303481030C0
:103BE000814201D8012070470020FCE7141000102A
:103BF00030B587B00546002409E005EB84000B4989
:103C00000968884701A941F82400601CC4B2062C49
:103C1000F3DB0698401C10B90598401C18B1280B1E
:103C200003490968884707B030BD00009C23002085
:103C30009823002010B503460C460022002102E024
:103C4000585C0244491CA142FAD3D043421CD0B272
:103C500010BD00002DE9F04104460F465B49B7FB5B
:103C6000F1F201FB12703C21B0FBF1F201FB1201F9
:103C7000A1714FF46161B0FBF1F201FB12013C2232
:103C8000B1FBF2F161714FF46161B0FBF1F12171AF
:103C90004E48B7FBF0F085B24FF4FA60208021E087
:103CA00021884FF4C87291FBF2F302FB131171B13A
:103CB0002188642291FBF2F302FB131151B1208899
:103CC000C11700EB91718910A0EB810111B94FF47C
:103CD000B77101E040F26D11691A8DB22088401C65
:103CE00080B2208021884FF4C87291FBF2F302FB6E
:103CF000131171B12188642291FBF2F302FB1311BD
:103D000051B12088C11700EB91718910A0EB81019E
:103D100011B94FF4B77101E040F26D11A942BFDD56
:103D20000020A07022E020884FF4C87190FBF1F2CF
:103D300001FB120070B12088642190FBF1F201FBBD
:103D4000120048B12688F01706EB90708010A6EBA1
:103D5000800008B9012000E000208046A17810F022
:103D6000B4FD281A85B2A078401CA07020884FF4BA
:103D7000C87190FBF1F201FB120070B12088642140
:103D800090FBF1F201FB120048B12688F01706EB18
:103D900090708010A6EB800008B9012000E00020A0
:103DA0008046A17810F091FDA842BCDDE570E07876
:103DB000401CE070A078401CA070E278A1782088B8
:103DC00001F054F9E071BDE8F0810000805101007C
:103DD00010B5702000F0ACFD28200CF065FE00202E
:103DE0000249C88008808880488010BD8821002052
:103DF000F8B505460E46052095FBF0F0A6EB8007CA
:103E0000002412E007EB840006F064FA00909DF8AD
:103E1000020020F001008DF8020007EB840001226F
:103E20006946054B1B689847641C052095FBF0F01C
:103E3000A042E7D8F8BD0000942300202DE9FC4102
:103E400004460D46C4EB041005EB800604F0800028
:103E500020B1701C1E49088004F07F041C480088B3
:103E6000B04233D01A4806800C2C02DBA4F10C00BF
:103E7000C4B2C4EB041005EB80000C2190FBF1F000
:103E800000EBC0004FF4BF2101EBC02705EBC500DC
:103E90004FF4B91101EBC0280E4860231A460021E7
:103EA0000090102008F052F9002060231A460146C5
:103EB000CDE90070102008F0A3F9002060231A4615
:103EC0000146CDE90080102008F09AF9BDE8FC8198
:103ED0002A24002000D816002DE9F0438FB00746B1
:103EE000894690461D460D2098FBF0F100FB11809D
:103EF00000F0FF08424632A105A809F029FCC6B22D
:103F0000002406E005A8005D303805A90855601CAE
:103F1000C4B2B442F6DB00202B49088018202B499C
:103F200005AA0C23CDE90026CDE902100922494655
:103F3000384605F023FF002023490880092000FBB4
:103F40000670C7B2C0212148F0300C230922CDE908
:103F500000014946384607F0F5FC07F10900C7B2F1
:103F60002846E91705EBD1614911A5EB4111CDB206
:103F70002A4613A105A809F0EBFBC6B2002406E00F
:103F800005A8005D303805A90855601CC4B2B442CC
:103F9000F6DB00200C49088018200C4905AA0C23E8
:103FA000CDE90026CDE9021009224946384605F040
:103FB000E5FE0020044908800FB0BDE8F083000052
:103FC0002530326400000000CC23002068D40300B8
:103FD0002DE9F04F8FB00746884691461D46DDE932
:103FE0001AAB4A4618A105A809F0B2FBC6B20024D4
:103FF00006E005A8005D303805A90855601CC4B26C
:10400000B442F6DB002011490880012D09D14FF49C
:1040100078400F4908809DF814000A30C0B28DF82E
:10402000140005A88DE8410C41463846DDE9182307
:1040300005F0A4FE4FF6FF700549088000200349F3
:1040400008800FB0BDE8F08F25640000CC2300206D
:10405000CA2300202DE9F04F8FB006468946174647
:104060009846DDF860A00A2097FBF0F00A2190FB4B
:10407000F1F201FB120B5A464AA105A809F068FBB0
:10408000C5B2002406E005A8005D303805A9085532
:10409000601CC4B2AC42F6DB0020434908806620B5
:1040A000424905AA2223CDE90025CDE902101822B4
:1040B0004946304605F062FE00203B49088006F183
:1040C0001800C6B20A2097FBF0F100FB117B5A469C
:1040D00034A105A809F03CFBC5B2002406E005A800
:1040E000005D303805A90855601CC4B2AC42F6DB4F
:1040F00000202D490880BAF1010F09D14FF4784012
:104100002B4908809DF814000A30C0B28DF81400C5
:104110006620264905AA2223CDE90025CDE9021013
:1041200018224946304605F029FE4FF6FF70204917
:10413000088000201C49088006F11800C6B2C02083
:104140001C4922230622CDE900104946304607F0DB
:10415000F9FBB01DC6B2424617A105A809F0F8FA4E
:10416000C5B2002406E005A8005D303805A9085551
:10417000601CC4B2AC42F6DB00200B49088066200C
:104180000A4905AA2223CDE90025CDE9021018220B
:104190004946304605F0F2FD0020034908800FB083
:1041A000BDE8F08F25640000CC23002002D7030077
:1041B000CA230020FADE030025303264000000002C
:1041C000F8B505460E460827002412E005EB442109
:1041D0000422684603F08FFC9DF80100552806D1A3
:1041E0009DF80000AA2802D134800120F8BD601C8F
:1041F00084B2BC42EADB0020F8E700007CB5B04D99
:10420000002403E000202855601C84B2B4F5007F30
:10421000F8D3AA202870552068704FF4FC60A94993
:104220000880092088700120C8700C2008710020C7
:104230004871887108460168009140680146019004
:1042400000980CF0EDFA9E49C1F8020042F210719C
:104250009B48A0F8D0103C2180F82310AA2180F8B8
:104260002410192180F82510012180F826104B21F7
:1042700080F8271090F8A80020F00101904880F8FD
:10428000A810B0F8A9006FF30B0000F2EC408C49C5
:10429000A1F8A9004FF4D2718948B0F8AA0061F3DF
:1042A0000F108749A1F8AA00084690F8A80020F04E
:1042B0000200801C81F8A8004FF0FF318048C0F850
:1042C000B1102D2180F8CD10FA21A0F8CE1090F871
:1042D000B80020F020017A4880F8B810B0F8B70094
:1042E00020F4FE5101F5FE517548A0F8B71090F882
:1042F000B50020F01F000830714981F8B50008466C
:10430000B0F8B50020F4FC616D48A0F8B51090F845
:10431000B60020F0F8016031694880F8B61090F8D6
:10432000B70020F03F01664880F8B71090F8BC0055
:1043300020F02001624880F8BC10B0F8BB0020F4E7
:10434000FE5101F5FE515E48A0F8BB1090F8B9008F
:1043500020F01F010E315A4880F8B910B0F8B900AA
:1043600020F4FC615648A0F8B91090F8BA0020F08B
:10437000F8019031524880F8BA1090F8BB0020F054
:104380003F014F4880F8BB103C2180F82310AA2140
:1043900080F82410192180F82510012180F82610BA
:1043A0004B2180F8271090F8A80020F00101444824
:1043B00080F8A810B0F8A9006FF30B0000F2EC40F1
:1043C0003F49A1F8A9004FF4D2713D48B0F8AA00C6
:1043D00061F30F103A49A1F8AA00084690F8A80026
:1043E00020F00200801C81F8A8004FF0FF31344813
:1043F000C0F8B1102D2180F8CD10FA21A0F8CE1010
:1044000090F8B80020F020012D4880F8B810B0F8DE
:10441000B70020F4FE5101F5FE512948A0F8B7106D
:1044200090F8B50020F01F000830254981F8B5004C
:104430000846B0F8B50020F4FC612148A0F8B5109A
:1044400090F8B60020F0F80160311D4880F8B610F1
:1044500090F8B70020F03F01194880F8B71090F8A5
:10446000BC0020F02001164880F8BC10B0F8BB005A
:1044700020F4FE5101F5FE511148A0F8BB1090F850
:10448000B90020F01F010E310D4880F8B910B0F8C6
:10449000B90020F4FC610A48A0F8B91090F8BA00FD
:1044A00020F0F8019031064880F8BA1090F8BB006F
:1044B00020F03F01024880F8BB1000F047F87CBDB7
:1044C000007E0020A02100202DE9F84380461C4DED
:1044D0001C4C4FF4EA27B8F1010F02D14FF4EC273E
:1044E000194C2088072805D3380B00F021FA00204A
:1044F00020800BE000200090218807EB4120012262
:10450000694600F09FFA2088401C2080002085F832
:10451000FF01002607E095F8FF01A95D484085F8F6
:10452000FF01701C86B2B6F5FF7FF4D9218807EB36
:1045300041208022294600F085FABDE8F88300007A
:10454000007E0020842100208621002010B500205C
:10455000FFF7BAFF0120FFF7B7FF10BD38B50446DB
:10456000012C08D11D200823FF220A2100900120E0
:1045700000F03CF807E01D200823FF220A210090EC
:10458000002000F033F838BD70B50546012D03D189
:10459000062014F085FE23E00624204609F038F9B1
:1045A00000B91CE00F48806868B160090D4951F8F6
:1045B000200004F01F020121914088436109094A4B
:1045C00042F821000AE000BF04F01F0101208840EA
:1045D0000549620941F8220000BF00BF00BF00BFCB
:1045E00070BD00005831002080E100E02DE9FF4758
:1045F00006460C4617469846DDF830A0154B0FCB03
:104600008DE80F000A2C02D10024134D00E0134D59
:10461000012E1AD18DF80C408DF802708DF80180B2
:104620008DF800A000BF00230D4A6946284611F00E
:104630001FF88146B9F1000F06D000BF09A22B2157
:10464000484609F017FF00BF02E0284611F0D8F8ED
:10465000BDE8FF8768D3030060D3030058D303008D
:104660006DA803002E2E5C6D6F75646C655C7370B5
:104670006F72745C73706935322E630001200149DA
:10468000087070472323002002200C49086000BFF7
:104690000B4800680028FBD0012008491031086051
:1046A00000BF074800680028FBD0002003490860CD
:1046B00000BF034800680028FBD0704704E50140B4
:1046C00000E401402DE9F04104464FF0000804F4F5
:1046D000000000283AD0012027490870C4F31604CE
:1046E00026480068C0F3160024490860BC2015F075
:1046F00007FC0020FFF764F8214803881F4821A128
:104700000268002006F05CF904F58050070C80B2C6
:1047100000B17F1C0026002511E0D821304600F0B2
:1047200033F906F580360A20B5FBF0F100FB115095
:1047300020B90020FFF744F808F04AFD6D1CBD4287
:10474000EBD316A1002006F03BF912E0B4F50C3FC4
:104750000FD84FEA1438C4F30B0008B108F1010870
:104760004626002503E0701900F0E2F86D1C45456F
:10477000F9D30120BDE8F0815B2300205423002001
:104780005823002065726173653A2073697A653D2C
:1047900025582C6372633D25780D0A00455241531C
:1047A0004520414C4C0D0A0030B5034600244D1EF7
:1047B000E8B200BF33F810502C4428B1451E33F83E
:1047C000155023F8105000E002E0451EE8B2F1E772
:1047D00000BFB4FBF1F5158030BD2DE9F041054671
:1047E0000C46002600276088070AA5F5E220C0F3E2
:1047F0000F36C5F30B00D0B9BE4212D16088A18834
:10480000884201D1208860B1A08800F58070608066
:104810004FF4407020806088B0F5806F01D3002095
:104820006080280B00F084F832200CF03DF9BDE8E0
:10483000F0812DE9F04104460D4600260027A088AE
:104840004FF4E22101EB001621463046FFF7C5FF89
:104850002F4604223946304600F0F4F8A088401C68
:10486000A080A088B0F5806F01D30020A0802088B0
:10487000401C2080204600F023F80020BDE8F08195
:1048800030B503460C46184600F012F808B1012076
:1048900030BD58884FF4E22101EB0015002203E0FF
:1048A000A85CA054501CC2B2102AF9DB0020EFE72C
:1048B0000146088808B9012070470020FCE7000085
:1048C00070B50446E088B0F5007F07D3702000F093
:1048D0002FF828200CF0E8F80020E080E0884FF462
:1048E000E02101EBC00520780F49087020880012F4
:1048F0004870A078887060880012C87020790871AC
:10490000A08800124871AA2088715520C8710748F4
:104910000A4606CA06C002220449284600F092F858
:10492000E088401CE08070BD90210020982100208C
:104930002DE9F04104460025FF2627033846FFF7FE
:1049400043F9D8B10020FFF71FFE00BF204628DF43
:10495000C6B2681CC5B24EB964250120FFF714FE2B
:1049600002200CF0A1F80120BDE8F08102200CF03B
:104970009BF8642DEADB0120FFF706FE0020F3E739
:1049800001460868704700002DE9FF4705460E46BE
:1049900000242948007808B9BDE8FF87012007F006
:1049A00001FAC5F30747C5F3072805F0FF09012001
:1049B00008F086FC152011F0B0F820480078EF28A8
:1049C00004D01E4800681E49884208D1D72E06D15F
:1049D00020222046611CCCB201A90A5404E02046E2
:1049E000611CCCB201A90E54C72E10D02046611C08
:1049F000CCB201A90F542046611CCCB201A901F828
:104A000000802046611CCCB201A901F80090002072
:104A10000346224601A9009015F02EFF152011F043
:104A200011F906F049F9002008F04AFC002007F0CF
:104A3000B9F900BFB0E70000C0230020C423002064
:104A4000E04013002DE9F843074688461446002647
:104A5000012000EB1419002000903846FFF7B4F84D
:104A600028B30020FFF790FD00BF2246414638469C
:104A700029DFC5B2701CC6B222464146384617F03F
:104A800099FC48B145B90120FFF77EFD02200CF0EA
:104A90000BF80120BDE8F88348460CF005F8642EB9
:104AA000E3DB0120FFF770FD02200BF0FDFF00208B
:104AB000F0E7F0B503460C460020002130E05D5CD5
:104AC000802D0BDA5D5C7B2D25DA5D5C2F2D22DDE0
:104AD0005F5C0546461CF0B257551CE05D5CE22D5C
:104AE0000AD14D1C5D5D802D06D18D1C5D5DAD2D07
:104AF00002D18D1CE9B20EE05D5CE22D0AD14D1CA5
:104B00005D5D802D06D18D1C5D5D8E2D02D18D1CCD
:104B1000E9B200E006E0102800DB03E04D1CE9B23A
:104B2000A142CCDB00BFF0BD2DE9F04F89B04FF0C2
:104B30000008002008904FF48070079001260024A0
:104B400013E0079811F0D2F848B100BF814800681F
:104B5000304020B1079811F0BBF848EA060876000B
:104B60000798001D80B20790641C082CE9D34FF40D
:104B7000BE7011F0BBF850B14FF4BE7011F0A8F840
:104B800048F0004808AA0121002011F087F808F039
:104B9000FF0000B3012600241BE006EA0800B0B1C4
:104BA00000BF6D4850F82400C0F30420074600BF42
:104BB000694850F82400C0F30140814620460BF0BC
:104BC0009DFA054615B149463846A84700BF76000C
:104BD000641C082CE1D308F0004000287ED000209F
:104BE00006900590002505E04FF0FF3004A941F83C
:104BF00025006D1C002DF7D000BF0020069000247A
:104C00006FE05648005D0390039820F0C0075348BA
:104C10000057401C002863D004A9384610F080F9E2
:104C200000285DD003984FEA901A38460BF0AEFA90
:104C300081460BF063FA0290029810B9BAF1030FA3
:104C40004BD1BAF1030F11D1394605A80246CB0862
:104C500001F0070112F803C04FF0010E0EFA01FE39
:104C60004CEA0E0C02F803C000BF00BF00BF00BF3B
:104C70004FF0A041084600F5E06151F82710C1F35C
:104C8000014900BF08A9384610F04AF98346BBF134
:104C9000000F02D0B9F1020F05D0BBF1000F1BD1FC
:104CA000B9F1030F18D1BAF1030F0FD1B9F1020F07
:104CB00001D1032000E0022001903846019910F054
:104CC000E7FE0698401CC0B2069000BF029818B1DB
:104CD00051463846029A904700BF00E036E000BFD8
:104CE000641C042C8DD3069858B3012703AA012114
:104CF000002010F0D3FF00250AE003A850F825009B
:104D000008A951F82510884201D0002702E06D1C47
:104D1000002DF2D000BF17B10020069010E0002552
:104D20000CE003A850F8250008A941F8250005A8C3
:104D300050F8250004A941F825006D1C002DF0D085
:104D400000BF069800287FF458AF00BF09B0BDE847
:104D5000F08F000004630040106500400430002024
:104D60002DE9FC41054611200F2314220321009058
:104D70000120FFF73BFC2348007801281ED101A940
:104D80003C2003F002FF2E4600240BE0C02094FBE1
:104D9000F0F100FB1140871939463F2003F0F5FE82
:104DA000601CC4B29DF804008442EFDB9DF804004F
:104DB000062190FBF1F0C0B2019016E001A92F206E
:104DC00003F0E3FE9DF8040000F01F0001900024B2
:104DD00007E004EB440105EB410003F088FE601C92
:104DE000C4B29DF804008442F3DB11200F23142287
:104DF000032100900020FFF7F9FB9DF80400BDE8B7
:104E0000FC810000B92300202DE9FF4F81B0074647
:104E10000E461C464FF6FF7000902A48007880B975
:104E200029484FF48C2102680098FEF717FE308065
:104E30003088B84203D1012005B0BDE8F08F0020D2
:104E4000FAE7A14620480068B0FBF4F81E48006865
:104E5000B0FBF4F104FB110038B108F101081A4865
:104E60000068B0FBF4F104FB11094FF4805B4FF0D4
:104E7000000A17E0A8F10100504500D14C46224637
:104E80005946039805F0CAFEA344224603990098A8
:104E9000FEF7E4FD0546291201EB052080B20090E3
:104EA0000AF1010AC245E5D335803088B84201D104
:104EB0000120C1E72B463A4604A1002005F080FD01
:104EC0000020B9E75B23002054230020494E3A25F7
:104ED00078202C6F75743A25780D0A00014679B157
:104EE0000948006808600848007908710648401DB4
:104EF0000268C1F805208288A1F809208079C8726B
:104F00000148C07970470000483F00200D480078F4
:104F10000D4A1278904212D00A4802780078401C5C
:104F2000084B18700948815C18460078142290FBE1
:104F3000F2F302FB1300034A10700846704700208A
:104F4000FCE70000BD210020BC210020A82100209A
:104F50002DE9F04F93B0064689463048C47914B124
:104F6000601EC4B200E006240025601C072190FBEF
:104F7000F1F201FB1200C4B200274FF0000844E038
:104F80002748D0F802002749B0FBF1F0C5F106012F
:104F9000401A244900FB01FACA452DD901A920462F
:104FA00004F0DCFF40B39DF80E10CA1701EB9272BB
:104FB00090109DF80E10CA1701EB92729210A1EB9F
:104FC00082020AB1411CC8B20146C21700EB12723C
:104FD000C2F3071BC21700EB12721211A0EB0212F0
:104FE0001AB10BF1010101F0FF0B08EB0B011FFAE5
:104FF00081F8791C8FB200BF601CC4B2072094FBFB
:10500000F0F100FB1140C4B26D1C072DB8D337700E
:1050100086F8018013B0BDE8F08F0000A0210020C9
:10502000007E00208051010070B5044606480578D6
:1050300005EBD570054AD2F8022002EB600120464C
:10504000FEF708FE70BD0000C8210020007E002091
:1050500010B50521032006F009FE41F25E01484328
:1050600040F23E21B0FBF1F080B210BD2DE9FE41CF
:1050700004460B4616460FF2AC08D8E9005CD8F897
:105080000880CDE901C80095642594FBF5F5EFB2E1
:10509000642594FBF5FC05FB1C45E9B20D2593FB4B
:1050A000F5FC05FB1C35EBB2132F02DD01F16405A5
:1050B000E9B20D464FEAE17C01EB9C7C01EBAC0CC4
:1050C0001FFA8CF2072592FBF5FC05FB1C25AAB202
:1050D00002EB060C5D1E1DF805506544AAB24FEAAE
:1050E000E17C01EB9C7C4FEAAC0CA1EB8C0CBCF19D
:1050F000000F03D1032B01DA551EAAB2072592FB3C
:10510000F5FC05FB1C2515B90722104605E007250F
:1051100092FBF5FC05FB1C25E8B2451EE8B2BDE894
:10512000FE810000000303060104060205000305DA
:1051300070B503460C46C3EB031504EB8501104D17
:105140002D88A9420CDB0E4D2D884D1B052695FBA5
:10515000F6F54FF4D22606EB023606EB85000DE09D
:10516000074D2D88C5F5B4650D44052695FBF6F56C
:105170004FF4D22606EB023606EB850070BD000028
:10518000A023002010B5002400211A2010F0FBFB02
:10519000012000F028F91C2010F075FD012000F01E
:1051A00022F91A2010F021FD78B1012000F01BF93E
:1051B0001C2010F0D3FC012000F015F91A2010F08B
:1051C0005BFC1A2010F0CAFC0FE0012000F00BF984
:1051D0001C2010F0C3FC012000F005F91A2010F08B
:1051E0004BFC1A2010F0BAFC0124204610BD70B50B
:1051F00000211A2010F0C7FB002507240BE01A201D
:1052000010F0F3FC18B10120A0402843C5B200F013
:10521000D9F8601E44B2002CF1DA1A2010F02CFCF0
:105220001A2010F030FD00F0CDF8284670BD0000C7
:1052300070B504460D4600F091F81548007800F06E
:105240004CF8FFF79FFF18B900F0A8F8002070BDD8
:10525000284600F042F8FFF795FF18B900F09EF8D5
:105260000020F4E700F016F80949097841F0010040
:1052700000F033F8FFF786FF18B900F08FF8002030
:10528000E5E7FFF7B4FF207000F088F80120DEE7C3
:105290004424002010B51C2010F0EEFB1A2010F062
:1052A000EBFB012000F09FF81A2010F0ECFC01202D
:1052B00000F099F81C2010F0E6FC012000F093F8B3
:1052C0001A2010F04BFC012000F08DF81C2010F08B
:1052D00045FC012000F087F810BD70B50546072495
:1052E0000FE045FA04F000F0010018B11A2010F0A8
:1052F000CAFC02E01A2010F031FC00F063F8601ED6
:1053000044B2002CEDDA70BD70B505460C4600F0D5
:1053100025F811480078FFF7E0FFFFF733FF18B9D1
:1053200000F03CF8002070BD2846FFF7D6FFFFF7DD
:1053300029FF18B900F032F80020F4E72046FFF703
:10534000CCFFFFF71FFF18B900F028F80020EAE7AC
:1053500000F024F80120E6E74424002010B51C20CA
:1053600010F08AFB1A2010F087FB012000F03BF8B8
:105370001A2010F088FC1C2010F085FC012000F0A1
:1053800032F81A2010F0EAFB012000F02CF81C2063
:1053900010F0E4FB012000F026F810BD10B51C2031
:1053A00010F06AFB1A2010F067FB012000F01BF8D8
:1053B0001C2010F068FC012000F015F81A2010F0F5
:1053C00062FC10BD10B5012000F00DF81C2010F09B
:1053D0005AFC012000F007F81C2010F0BFFB012050
:1053E00000F001F810BD10B5044620460BF068FB34
:1053F00010BD000004A1002005F0E2FA00221146D1
:10540000104609F037F80000686172646661756CD7
:10541000740D0A0010B50446032010F0DAFB20B921
:105420000D4890F822003C2809DD00200B498871C6
:105430000846807908B1012010BD0020FCE7204615
:1054400004F000FD054988710846807908B1012003
:10545000F2E70020F0E70000007E0020483F002037
:105460002DE9F05F654C8E4603266368627803F58C
:105470008059217899F8B05343F69823042792462F
:105480004FF0060B4FF0020C4FF0050898420BD975
:10549000022909D0072A1BD0062A1CD0052A1DD0B4
:1054A000042A1DD084F801C040F6B83290420A4662
:1054B00025D2022A34D06278A2B1022A15D0032A5A
:1054C00015D0042A15D0052A16D00722627018E0DC
:1054D00084F801B0E8E784F80180E5E76770E3E766
:1054E0006670E1E784F801C00BE0667009E0677060
:1054F00007E084F8018004E084F801B001E0022AAA
:105500000ED006290CD04FF47A7205B152089042A1
:1055100009D26078072805D020B1012802D002E026
:105520004622F2E70DB126700AE0072803D1B9F848
:10553000D223724502DB84F800C004E0022902D0C5
:10554000022906D017E002292CD00DBB0020607084
:1055500028E085B902F0FEF802F03EF900F08AF882
:10556000616841F65830A1F86200A1F86000A1F826
:105570005E00A1F85C002278022A13D0606840F235
:105580002C63C168994204D9042A02D084F80080AF
:1055900008E0B1F5897F04D900F58050D0F8980370
:1055A000D8B1267061788A4506D1606800F58050D0
:1055B00090F8B003A8421ED0606800F5805090F8C3
:1055C000B013A94200D067706078082813D2DFE8D2
:1055D00000F0060A0E0E0E0E0E0E2770E2E7BDE872
:1055E000F05F02F05BB9BDE8F05F02F03FB9BDE8E3
:1055F000F05F02F095B9BDE8F09F0000482400205C
:105600000C4A0D4913780B70526892F856304B7063
:1056100092F857308B7013780B7253684B6092F886
:10562000F1244A72A1F14C02D16C526D8260C0E942
:105630000013704754240020A45800200B4A10B5D2
:105640000B4913780B705268D3684B6014780C7256
:1056500094794C7292F867208A72A1F15802916D88
:10566000126E8260C0E9001310BD000048240020C3
:105670004C5300202DE9F041764C754806216060BE
:10568000754B2170754D1F7870212E7801EA071136
:1056900041EA161C72494FF03C0E0EEA860E0A785B
:1056A00002F03F014EEA9212891A00F58052052954
:1056B00005DD41F27071A2F8D213891004E042F6C0
:1056C000E061A2F8D2138910A2F8D4130021A2F845
:1056D000D613BCF1000F07D106F00F062E7007F0AD
:1056E000F80545F004051D70017041700181A2F8B4
:1056F000B813C1600161A0F86210A0F86010A0F8B2
:105700005E10A0F85C1080F86510416281628161D2
:10571000C1610162C1620163416380F864100023CA
:1057200000EB4305A5F8CA10A5F80A1200EBC30563
:105730005B1CC5F84C139BB2C5F85013A02BEFD3DC
:105740005FF0000300EBC3055B1CC5F84C189BB26F
:10575000C5F85018A02BF5D35FF0000300EB8305CC
:105760005B1CC5F84C1D05F580559BB2E966C82B3E
:10577000F4D3C72382F88C3382F88D1382F88E130A
:1057800082F88F1382F8901382F89113012382F824
:10579000923382F89313A2F89413A2F89613C2F8E6
:1057A000983348238370C37003714371C37182F8C7
:1057B0009C33A2F89E13A2F8A013C2F8A41382F897
:1057C000A813C2F8AC1382F8B01382F8B2135023B6
:1057D00082F8B1331223C2F8B43382F8BA1382F8D4
:1057E000BB1382F8BC1382F8BD130023C2F8C413A4
:1057F000C51805F580555B1C9BB285F8C813042BB2
:10580000F6D380F8671080F86810002300EB43059A
:105810005B1C9BB2A5F86A10282BF7D3C0F8C01008
:10582000A0F8BE10A0F8BC1020F8BA1F15234373CF
:105830000373C372837281730A480178617092F8AE
:10584000B013007802F06CF80120BDE8F081000090
:10585000743F0020482400203D2400203C240020E8
:105860003B24002081FB03002DE9FF4FADB0002752
:1058700000253A990E971F97209721971D971B9700
:105880001C97109722971197129706971E971397B8
:105890000B9516950895CDE92357042002902C46C8
:1058A000AB46A846AA461595901110FB00F2981138
:1058B00010FB0022881100FB0020FDF709FD41ECE0
:1058C000100B07F059FF51EC100BFDF712FDFF4EC6
:1058D0001FFA80F97068B0F860C0A0F862C0B0F834
:1058E0005E30A0F86030B0F85C20A0F85E202D9902
:1058F000634489B20A441A44A0F85C109208026119
:1059000000EB47027F1CB2F86C30FFB2A2F86A309D
:10591000272FF5D3A0F8B8105FF0000100EB41028B
:10592000491CB2F86A30C9B298442829F6D3282213
:10593000B8FBF2F18BB2002100EB4102B2F86A2011
:10594000D21A00D55242491C5A44C9B21FFA82FBEE
:105950002829F1D3C168B1F5967F01D919220292A5
:10596000122909D9029AB1FBF2F302FB131141B9D2
:1059700000692E99FFF774FD7068C168122939D04B
:1059800043D97068A9F5E171024600F58050D0F85E
:10599000C4335918C0F8C41302D50021C0F8C41389
:1059A000D1681922B1FBF2F303EBC30202EB03123D
:1059B0008A422AD190F8BF1380F8C01390F8BE1322
:1059C00080F8BF1390F8BD1380F8BE1390F8BC1395
:1059D00080F8BD1390F8BB1380F8BC1390F8BA138D
:1059E00080F8BB13D0F8C41341F29412914209DD40
:1059F000012108E0018A8182C182A0F83890A0F8D4
:105A00003A9002E0002180F8BA137068B0F85E1096
:105A1000B0F86030CA1A642A03DD2D9FCF1B642FB3
:105A200007DC6FF06307BA4206DA2D9A891AB94289
:105A300002DAB0F9601001E0B0F95E10B646C6684F
:105A4000122E70D9CA1A02F5FA62B2F57A6F08D925
:105A500000F58052D2F8ACC38C44ACEB0303C2F81F
:105A6000AC3341F2AC32125A891AC28A8A1A13B282
:105A7000828AC2828182D0F81CC082696FF0700174
:105A80000CEB8C08514308EBCC0C01EB8C01A3EB25
:105A9000A111C0E907218161028D8A1A13B2426AFD
:105AA000C0E90912C26AD0F830C06FF04D0151430D
:105AB0000CEBCC0C01EB8C01A3EBA111C0E90C2188
:105AC000C162CEF80810816D0B91428FA9EB0201E3
:105AD0000BB2018F4187A0F83890C26B6FF0700154
:105AE00002FB01F7016C01EB810C0CEBC10107EB30
:105AF0008101A3EBA111C0E91021C163B0F84C20D2
:105B00008A1A13B2826CC0E91212026D476D6FF0EF
:105B10004D01514307EBC70701EB8701A3EBA1112F
:105B2000C0E915210165DFF8A8E140F2DC594FF426
:105B3000BB78962E6ED9002300EB430203F12D01B2
:105B4000B2F8CA60314489B2A2F8CA10494503D3F9
:105B5000A1F2DC51A2F8CA108AB240F2654C62454B
:105B600002D3A2F265410CE040F2EE218A4202D358
:105B7000A2F2EE2105E0424502D9A2F2771100E03F
:105B80001146C1F5BB771EF801101EF807604245AB
:105B90000FD940F2EE27BA4203D20A4631465642A6
:105BA00007E0624502D24942764202E00A4671426B
:105BB000164600EBC302476BD2F84CC35B1C06FBD6
:105BC00007C7C2F84C73D2F850C3476BDBB201FB76
:105BD00007C7C2F85073D2F84CC8876DA02B06FBDC
:105BE00007C6C2F84C68D2F85078866D01FB067182
:105BF000C2F85018A0D3C16800F58052972909D97E
:105C0000836D0B99591AD2F8A43300D5494219442F
:105C1000C2F8A413C168B1F5AF7F7DD9002140F26D
:105C2000654E00F5805200BF00EB410601F12D07E3
:105C3000B6F80A323B449BB240F2DC57A6F80A326F
:105C4000BB4203D3A3F2DC53A6F80A329BB27345DE
:105C500002D3A3F265460DE040F2EE26B34202D332
:105C6000A3F2EE2606E0B3F5BB7F02D9A3F27716C6
:105C700000E01E46164FC6F5BB7CB3F5BB7F17F898
:105C8000069017F80C8013D940F2EE26B34204D2E6
:105C90004B46C146C3F100080AE0734504D2C9F17E
:105CA0000009C8F1000803E04B46C8F10009984616
:105CB00092F88D7300EBC10300EB8707D3F84C63B8
:105CC000D7F84C7D08FB176604E00000482400204C
:105CD0008CFB0300C3F84C6392F88D63D3F85073C8
:105CE00000EB8606D6F84CCD09FB1C76C3F8506352
:105CF00092F88D63D3F84C7800EB860606F5805653
:105D0000F66E08FB1676C3F84C6892F88DC300EB6C
:105D10008C0606F5805600E024E0D3F85078D6F8DB
:105D20006CC0491C09FB1C76C9B2C3F85068A02995
:105D3000FFF47AAF92F88D13C7293CD04B1CDBB22D
:105D400000EB830300EB810103F5805301F58051E3
:105D5000DB6EC96E591AD2F8A43300D54942591ADC
:105D6000C2F8A41300F5805141F25273D1F8A42374
:105D700087781A445B0092FBF3F20C9791F8B163B9
:105D800053B2BA1B4FF00D081896F61BD21C3136D1
:105D900092FBF8F296FBF8F6DFF8BCC552B276B289
:105DA000002B27DD06263746934216DB9E1D0C2E60
:105DB00003DA9B1D02E00023C2E70C239B1D5BB2AC
:105DC000002A01DA002202E0961D0C2E01DA921D53
:105DD00000E00C229A1A56B21AE0002A01DA0022D8
:105DE00002E0931D0C2B01DA921D00E00C22921DA3
:105DF00057B20DE00833032B00DA03235AB2002E0A
:105E000000DA0026324456B2082E00DD08260827A4
:105E100091F8A8232692052A03D90A3676B20A37C2
:105E200003E01AB1761C76B27F1C7FB20A3606EB0D
:105E3000D67242F347031E010A230A3707EBD772D3
:105E400042F34702120196FBF3F692FBF3F276B2AD
:105E500052B20B960F92C368962B51D3466B37B252
:105E600015976FF00907BE4200DD1597B0F9BA60CB
:105E7000B0F9BC70BE4278DA159FBE4275DCB0F84E
:105E8000BE60EEB3D0F8C0609E1BA6F101085E1E96
:105E9000C0F8C0609CF80020022A40D05FF00102E8
:105EA000A8F10B06132E2ED2962B2CD94AB390F8BC
:105EB0006520042A02D2521C80F8652090F8C66042
:105EC00080F8C76090F8C57080F8C67090F8C4C0BC
:105ED00080F8C5C008F0FF0280F8C42062443E4448
:105EE000324497080022861896F8C460F61B00D545
:105EF0007642521C5644D2B21FFA86FA042A01E0B6
:105F000033E000E0EFD3BBF1960F02D3BAF10A0FF2
:105F100007D990F868200A2A13D2521C0FE00022F9
:105F2000BEE790F867602EB190F8682062B1012E4C
:105F300004D006E0002280F8682016E0521E80F8A7
:105F40006820D2B2022A06D290F86720012A02D134
:105F5000002280F8672090F86820062A05D390F880
:105F6000672012B9012280F867201922B3FBF2F6EC
:105F700002FB16320492002A7AD1FA2B78D3F74A20
:105F8000F74E4FF0000A57460DF1740B00EBC709AE
:105F9000D9F84CC84FEA6C38D9F850C808FB08F853
:105FA0004FEA6C3C0CFB0C89D14500D9CA4691459F
:105FB00024D2B24222D3A7F1010C0CF0FF0C002630
:105FC000CDF868C05BF826E0964513D256B10DF1C6
:105FD000380C1CF80680B4440CF8018C0BEB860CD2
:105FE0004CF804EC0DF13808DDF868C008F806C07C
:105FF0004BF82620761CF6B2042EE3D37F1C1646FF
:10600000FFB24A46A02FC1D300225F46DDF880C010
:1060100057F82260B6EBDC0F06D20DF1380C0026E3
:106020000CF8026047F82260521CD2B2042AEDD369
:10603000C94A91F8926341F2512CE24501D20127FD
:1060400000E0002781F89273BE46049F002F93D191
:10605000FA2B93D35FEA0E0702D1B3F5AF7F8DD34E
:106060000227289740F29447BA4502D2012701E05F
:10607000F9E3002780F8C87091F8C073279717B12B
:106080000C9F7F0101E0B1F8B873DDF860C0B9463C
:106090000F9FBCF14D0FC7EB591701D94FF04D0CB5
:1060A000674507DA189F4D2F00D94D27C7EB5917C1
:1060B0007FB20F979446BEF1000F09D146B19CF80C
:1060C0000020042A04D10C9A3C2A01D24FF4F06932
:1060D000A24EDFF88C82002700EBC702D2F84CC337
:1060E000D2F850234FEA6C3C0CFB0CFC521302FB21
:1060F00002CAB2452AD2464528D3A7F1010C0CF0BA
:10610000FF0C00220DF1400BCDF81CC05BF822C043
:10611000CDF810C0B44515D262B10DF1880C1CF851
:10612000028094440CF8018C0BEB820CDDF810809B
:106130004CF8048C0DF18808DDF81CC008F802C08A
:106140004BF82260521CD2B2042ADFD37F1CB04627
:10615000FFB25646A02FBFD3814A199229917F4F93
:1061600091F892B3002200BF00EBC206D6F84CC3F0
:10617000D6F850634FEA6C3C0CFB0CFC761306FB24
:1061800006CA560106F5B066A6EB090C0B9EBCEBE1
:10619000461F0ADAC2F1000C09EB4C16DDF83CC0D0
:1061A000A6F5B066B6EB4C1F0ADB299ED6F89863BD
:1061B0001EB1562A01D2062A02D85FEA0B0600D089
:1061C00001262C96BBF1000F01D10F2A01D3012625
:1061D00000E000262B964FF0040800260DF1380C45
:1061E0001CF806C0BCF1000F08D0A2EB0C0C0CF19F
:1061F000040CBCF1080F01D84FF02008761CF6B251
:10620000042EEBD3299ED6F8B463B7EB960F03D9CF
:1062100006FB08F6BE4267D8BBF1000F64D1299E89
:1062200096F8C063EEBB299ED6F89863012E5BD02A
:106230000026BA453FD2DDF864C067453BD3DDF8A0
:10624000B0C0BCF1000F36D0DDF8ACC0BCF1000F1F
:1062500031D03EB3A2F1010C0CF0FF0C0026CDF8BA
:106260001CC000BF0DF16C0C5CF826C0CDF810C04E
:10627000BC451CD276B10DF1840C1CF80680B444E8
:106280000CF8018C0DF16C0C0CEB860CDDF8108019
:106290004CF8048C0DF18408DDF81CC008F806C029
:1062A00001E021E007E00DF16C0C4CF82670761C43
:1062B000F6B2022ED6D3521C1997D2B25746A02A54
:1062C000FFF452AF0C9AC2709146D0F84C2357138A
:1062D000D0F850237F43521302FB0272139FB2EB9C
:1062E000570F03D9012202E00126A2E700221A92E9
:1062F00091F88D730022521CD2B2C82AFBD31A9A8D
:106300000AB1279A7AB100220292269A052A01D967
:106310000022029291F8C97391F8C823BA46BA4292
:1063200003D9174602E00122EEE7574691F8CAC3A7
:1063300091F8CB63E346B44501D9DC4600E0B446AE
:10634000674505D9524501D917460CE057460AE082
:10635000B34507D95F4606E04824002000A493D641
:10636000008589DC3746524501D9D44600E0944681
:10637000B34501D9B04600E0D846C44503D9B3457A
:1063800006D85E4604E0524501D9564600E016465E
:10639000BE1B0936122E01D8012608960AB9002222
:1063A0000892D1F898239346012A1AD1BEF1000F22
:1063B00017D09DF885201C9E2D32C1F8B4630126AC
:1063C000D2B2239638E000BFDDE91B7607EB470722
:1063D000B6EB470F7CD90226DFE00126DDE0002680
:1063E000DBE0029A12B15FEA0B0209D0BEF1000FA6
:1063F00026D09DF88B2062B12D32D2B2139E13E0CD
:10640000269E4A46761CF6B281F8A863032EE6D98A
:10641000E3E7189A0C9E0A3296420CD89DF8852024
:106420004AB12D321C9ED2B2C1F8B4635FF00006AF
:1064300081F8A86300E04A461B9E002ECBD0C3E73C
:10644000089A02B10122239291F8B2235AB9239AF1
:106450004AB1012281F8B2234A46B9F14D0F00D268
:106460004D2281F8B123002205921646CDF8102066
:1064700021AA4FF0000A925D149242B300220EAF9F
:1064800017F802C0BCF1000F16D0149FB7EB0C0731
:1064900000D57F42DDF8A080474509DD149F0CF14F
:1064A0002D0CA7EB5C072D3700D57F42474503DC59
:1064B0004FF0010ACDF810A0521CD2B2042ADED34C
:1064C000059F5AEA070204D0BAF1000F05D02AE06E
:1064D00073E00122CDE9052625E0069A1BAF57F8A7
:1064E000222057F8267002EB420C0CEBC20C0A2259
:1064F000BCFBF2F2BA4215D90F9F0B9ABA4208DDE3
:10650000DDF818C021AF149A17F80C70BA4209D8F8
:1065100009E007DADDF818C021AA149F12F80C2050
:10652000974200D20696761CF6B2022EA0D3049AA9
:1065300062B1069E1BAA52F82620FE4EB24205D238
:106540001C9E02EB4202B6EB420F2BD8059A4AB3CF
:10655000069E21AA069F925D1BAE2D3256F827603B
:10656000C1F8B463002681F8A863129FD2B2A7B124
:10657000DDF84CC01C9F6745BFF42DAFDDF848C067
:10658000674504D3DDF84CC0B7EB9C0FF4D2DDF8BF
:1065900040C0B7EB8C0F3FF63BAF867104264FF03F
:1065A000000A30E0BBF1000F03D00C9A121DD2B2EA
:1065B00015E7269E4A46761C3AE71B9FB6EB470F27
:1065C000F6D90AE74FF0000AEDB101270697042734
:1065D0000DF1380CBC441CF801CCBCF1000F38D0D4
:1065E0000DF18808B04418F8018CCDF83480B8EB70
:1065F0000C0C01D5CCF1000CDDF81880C44526DD6B
:10660000042F02D025E00427E0E79DF83BC0DDF829
:106610003480CDF810C00CF12D0CA8EB5C0C1CF1F3
:106620002D0C01D5CCF1000CDDF81880C4450EDD31
:10663000DDF834C0DDF81080ACEB480CBCF12D0C5B
:1066400001D5CCF1000CDDF81880C44501DC4FF019
:10665000010A7F1E17F0FF07BAD155EA0A070FD1CA
:10666000022E0DD910AF07EB8607DDF84CC057F8A6
:10667000047CB7EB5C1F03D9751E01276DB224970C
:10668000771EAF4211DABAF1000F0ED10DF1400CB6
:106690000CEB86065CF8258056F8046CB8EB460FC8
:1066A00003D200264FF0FF35249617F0FF0689D15C
:1066B0001A9E16B10025249509E0249E3EB122AC15
:1066C00010AE645D56F825502D34E4B21695279D22
:1066D000994E012D0BD00525BBF1010F0FD0A9EB71
:1066E00002078270062F04DDA9F1060207E01925D2
:1066F000F2E7A2EB0902AA4202DD09EB0502827071
:10670000827822B3B1F8B85325B1B3F5AF7F03D285
:10671000570106E05501FBE705EB450707EB42177C
:10672000BF08A1F8B873BFB2A7EB050CBCF1A00F6E
:1067300004DDB3F5AF7F01D9A03506E0EF1BA02F34
:1067400005DDB3F5AF7F02D9A03DA1F8B85391F8AC
:106750009C73E51B002D05DDB1F89EC3654501DA8C
:106760009C2C08D3002D08D53D1BB1F8A073BD4269
:1067700003DA462C01D9012700E00027BBF1010F05
:1067800000D100279DF885504FF0000C7DB1A02D61
:1067900000D39F2500EBC505D5F84CC3D5F8505361
:1067A0004FEA6C3C0CFB0CFC6D1305FB05CC91F81F
:1067B000A853B146062D03D96FF00606322507E02F
:1067C000032D03D96FF001061E2501E001261425D3
:1067D000DDF89080B8F1010F30D177B3A24206D234
:1067E000BEF1000F03D102F14107A74214D8A24223
:1067F00019D90B9F37440F9EB74214DABEF1000F30
:1068000011D12544AA420EDA4A4D169AAA420AD953
:106810000CEB4C05954206D284706201A1F8B823B6
:10682000169AC1F8B4238278A24207D10522A1F8B2
:106830009E2381F89C43022208E0FFE7B1F89E23E3
:10684000521DA1F89E23B1F8A023921CA1F8A02309
:106850004C46BEF1000F0DD191F8B12386784D2A38
:1068600002D2154601E05FE04D25AE4202D2BBF1F7
:10687000000F03D0BBF1010F1ED006E04D2A00D35C
:106880004D2282705201A1F8B82305890189B1B166
:106890002A4A12785143827801EBC201284A1278C1
:1068A000D140018189B24A1B402A0BDDB3F5AF7F8D
:1068B00008D905F140010DE08178CD00E6E7817847
:1068C000C900EEE7691A402905DDB3F5AF7F02D9AB
:1068D000A5F1400101810189C9080170FCF7ACFCF8
:1068E00040B2002801DD012001E04FF0FF30616877
:1068F0000A89AA4205D10A7B920702D10A7810447C
:10690000087001F5805090F8CA2380F8CB2390F8E6
:10691000C92380F8CA2390F8C82380F8C92389784E
:1069200080F8C813239818B90348007805280FD1B8
:10693000002107E020BF02004824002084FB030060
:1069400085FB03002248406800F58050C0F898138A
:106950001F484068C168962926D900F58051426BCE
:1069600091F88D3300EB8303C3F84C2D91F88D2300
:10697000836D00EB820202F58052D36691F88C237E
:10698000521CD2B281F88C2391F88D335B1CDBB2A0
:1069900081F88D33C72A02D9002281F88C23C72BB6
:1069A00002D9002281F88D23B0F8BC10A0F8BE10E7
:1069B000B0F8BA10A0F8BC101599A0F8BA1050F8A9
:1069C0000C1F491C016031B00120BDE8F08F0000B0
:1069D000482400202C4A73231928526806D8A3EBB8
:1069E0008100401A82F8EF04492007E01E280AD8E7
:1069F000A3EB4100401A82F8EF044B20A0EB4100CA
:106A000082F8F0047047232807D87520A0EB4100D6
:106A1000401A82F8EF044C20F0E7282806D87820A6
:106A2000A0EB810082F8EF04502029E02D2806D841
:106A30007C20A0EB410082F8EF04512020E03228B6
:106A400004D8802082F8EF04522019E0542337281C
:106A500005D8862082F8EF04A3EB8100D0E73C281C
:106A600007D8892000EB410082F8EF04A3EB410036
:106A7000C6E79420A0EB4100401A82F8EF045620AC
:106A8000A0EB4100401ABBE75424002070B55249E6
:106A900070200A7800EA02145048037854EA13156B
:106AA0004FF0000407D103F00F03037002F0F80069
:106AB00040F00400087000F007FE4A4D48480621E7
:106AC0006860297000F8144B3F2140F8104C40F8E2
:106AD0000C4CA0F8BC4344870487C4868486C460F9
:106AE000046104604460846044618461C461046240
:106AF00044628462C4620463C487848780F841402E
:106B000080F84040B0F1140000EB41024318A2F8B5
:106B10009042491E83F8104309B2A2F8504300295D
:106B2000F2DAA0F8D24300214FF48E7300EB410259
:106B3000491C09B2A2F858409942F7DB80F8574047
:106B400080F856405FF03F0100EB4102491EA2F879
:106B5000D44309B2A2F854440029F5DAA0F8D44489
:106B6000A0F8D64480F8D844A0F8DA44A0F8DC4471
:106B700080F8DE44A0F8E644A0F8E444A0F8E2443B
:106B8000A0F8E04440F20D21C0F8E814012180F89B
:106B9000EC14144980F8ED44083180F8EE4408788C
:106BA00010B1C978FFF716FF6868002180F8F1443A
:106BB00000EB4102491C09B2A2F8F8442829F7DB8E
:106BC00080F8F644152180F8F51480F8F41480F864
:106BD000F31480F8F21470BD3D2400203C24002002
:106BE00058530020542400202DE9F04F0646002081
:106BF00089B00146029008900690059004900446E2
:106C00000790019003900546824603468146FE4A5E
:106C10000090107805287CD00428FCD05068476884
:106C2000032F1DD9B0F85070A7EB060CBCF1640F10
:106C300006DDB0F85280A7EB0808B8F1640F09DC54
:106C40006FF06308C4450BDAB0F852C0A7EB0C072D
:106C5000474505DAB0F8527037447F08A0F8507005
:106C6000B0F84C70A0F84E70B0F84AC0A0F84CC014
:106C7000B0F848809346A0F84A80B0F85020A0F8B9
:106C80004820424467443A449208826000EB410243
:106C9000491CB2F8FA7489B2A2F8F8742729F5D31E
:106CA000A0F846655FF0000100EB4107491CB7F80A
:106CB000F87489B23B442829F6D32821B3FBF1F1BB
:106CC0008BB200214FEA0B0800EB4102B2F8F82426
:106CD000D21A00D55242491C524489B21FFA82FA94
:106CE0002829F1D3304600F071FCD8F80410642252
:106CF00040464F68B7FBF2F302FB1372012A01D141
:106D0000B1F94A60022A01D1B1F94C60032A03D1DA
:106D100000E0FDE3B1F94E600378022B47D0062B6B
:106D200045D04FF47A728868904208D2122F06D963
:106D3000022B04D0022088F8000000F083FCD8F871
:106D400004004168B1F5DC6F09D9836840F2DC5773
:106D5000BB4204D290F8EE345B1C80F8EE34B0F8FD
:106D60005020B0F85230D21A0FFA82F812297DD989
:106D7000DFF894B29BF80030022B54D040F24477F5
:106D8000B94250D240F2D667B94202D390F8567059
:106D90007FB140F24657B94242D390F85600E0B373
:106DA000052B37D05FF004008BF8000032E046225C
:106DB000B9E700217A2000F091FED021012000F0F7
:106DC0008DFE6E210C2000F089FE7821162000F047
:106DD00085FEDBF8040040F23A725F46416891425A
:106DE00021D390F8EE04322818D2FCF725FA0521B9
:106DF00090FBF1F201FB12007A68401C137800EB63
:106E00001310733082F85600462000EB131082F8FE
:106E10005700397000F016FCCCE301E00520C3E711
:106E200003208BF80000DBF8040000224FF0010B78
:106E300002E00AB14FF00008D0E9031308EB410764
:106E4000C0E9038103EB070E704B4169876940F28B
:106E5000EB7C4B4307FB0CF703EB47070BEBE727F8
:106E6000AEEB6703C0E90613436100E048E0416A06
:106E700040F2737C5F1A016AC0E90831816A644B91
:106E80008E465943C36A03FB0CF301EB43030BEB40
:106E9000E321A7EB6103C0E90BE38362816B476BDE
:106EA0001944C0E90D37C7F1000CC36B584F9E461B
:106EB0000C377B4301EB4C01076C40F25F7C07FB16
:106EC0000CF703EB47070BEBE723A1EB6301C0E9EA
:106ED0000F1E90F8EC3419410F46416400D57F42F3
:106EE000B7F5804F04DD012B02D1052380F8EC3487
:106EF00000EB4203521C92B2A3F8E014042A98D388
:106F0000414840684168BE297CD9D22100EB41024A
:106F10009046B2F85830B2F856709C46B2F85A20F3
:106F2000DB1B0FFA83FBA2EB0C020FFA82FEBBF114
:106F3000000F63DCBEF1000F65DD012280F85420F4
:106F40004A1E92B2A1F1460317E000BF00EB4207D0
:106F5000B7F856C0B7F85470ACEB07073FB2002F34
:106F600002DA4FF0010202E004DD4FF0000280F887
:106F7000542004E0A2F1010292B29A42E6DC9AB2F5
:106F800001F1460C0EE000BF00EB4203B8F9587067
:106F9000B3F95830FB1A002B02DD002380F854307F
:106FA000521C92B26245EFD990F85420012A22D1A6
:106FB0005FF0000200EB4203B3F89272A3F8907204
:106FC0008718521C97F811C387F810C3B3F852738F
:106FD00092B2A3F850733F2AECD3B8F85830A0F817
:106FE000CE33B0F8E834A1F58E721A44A0F80E231F
:106FF000022280F84F23BBF1000F76DDBEF1000FB7
:1070000073DC07E076E070E0542400202BE0FFFF03
:107010003AE1FFFF012280F855204A1C92B201F1AB
:1070200046034FF48D7E16E000EB4207B7F85AC0D6
:10703000B7F85870ACEB07073FB2002F02DD4FF0F6
:10704000000202E004DA4FF0010280F8552006E069
:1070500002F1010292B29A4201D27245E4D990F84B
:10706000EC24012A04D064229346A1F1460211E0E7
:107070004FF44872F8E700BF00EB4207B8F958C078
:10708000B7F95870DC44BCEB070702D5002780F83D
:107090005570521C92B29A4201D87245ECD990F8C0
:1070A0005520012A21D1002200EB4203B3F892724D
:1070B000A3F890728718521C97F811C387F810C371
:1070C000B3F8527392B2A3F850733F2AECD3B8F8D6
:1070D0005830A0F8CE33B0F8E834A1F58E721A44D7
:1070E000A0F80E23012280F84F23491C89B2D5292C
:1070F0007FF60CAF416840F2B632914278D332222B
:10710000B1FBF2F302FB1311002971D14FEA010B1D
:1071100000EB4102491CA2F854B489B2A2F8D4B3DE
:107120004029F5D3D0F8E814A1F61C485FF000011F
:1071300000EB4102B2F8907247454AD9431893F8E0
:1071400010C3BCF1020F44D193F81133012B40D18D
:10715000B2F89232DB1B049F9BB207EB83070497C4
:107160004FF6FF7707EA830300EB4407A7F8543490
:10717000B2F95033A3B1B2F952C34FEA8C1C9CFB55
:10718000F3F31BB203F14F0CBCF1450F08D2DDF84D
:1071900004C063441BB20193009B5B1CDBB20093F1
:1071A0008CB1B2F890C2B0F8D233ACEB0303B7F8AD
:1071B00052C40CEB8303DDF808C09BB29C44CDF8AD
:1071C00008C0A7F8D233641CB2F89232E4B2A0F837
:1071D000D233491C89B23F29AAD3012C05D0029988
:1071E000621EB1FBF2F189B208910021621E0FE02C
:1071F00092E100BF00EB4103B3F8D473089BFB1A84
:1072000000D55B42059F491C3B441BB289B20593E4
:107210009142EFDB05994FEA211E009921B1019BB4
:1072200093FBF1F109B2039124B10499B1FBF4F19C
:1072300089B207910299090907D040F6B8314A434B
:1072400002990909B2FBF1F1017090F8F41480F889
:10725000F51490F8F334884680F8F43490F8F2147A
:1072600080F8F314027880F8F224D0F804C040F2D9
:107270004C47BC4541D3571803EB080139448F08EC
:107280000021431893F8F234DB1B00D55B42491C04
:107290004B4489B21FFA83F90429F2D3C74B1B88E8
:1072A0009A4502D3B9F10A0F05D990F8F6140A29C4
:1072B00010D2491C0CE090F8F1342BB190F8F61480
:1072C00059B1012B03D005E080F8F6B415E0491E52
:1072D00080F8F614C9B2022905D290F8F1140129F8
:1072E00001D180F8F1B490F8F614042905D390F890
:1072F000F11411B9012180F8F11400210EE000BF52
:1073000000EB4103B3F85474079BFB1A00D55B42B2
:10731000069F491C3B441BB289B20693A142EFD39E
:10732000A74B06995F784FEA211947B1997831B197
:1073300017FB07F4A34D6943B1FBF4F18DB2412A69
:1073400010D2A2F146013A2A01EB410105D2822472
:1073500004EB610402F10F0113E0782404EB6104F3
:10736000511D0EE0A2F14601552A01EB410104D95D
:10737000692404EB6104511F03E06E2404EB6104F3
:107380001146DDF80CC06FF016081CFB08FC4FF02E
:107390000A080CF5B47C9CFBF8FC0FFA8CFC0CEB97
:1073A0004C0C4FEA4C0C0CEB840494FBF8F493F86F
:1073B00000C024B2BCF1000F6CD093F80380B8F188
:1073C000000F03D0B8F1010F3AD063E0BCF1230FF6
:1073D00011D290F8EF74733C07EB640490F8F074EA
:1073E0004A3924B207EB61010DB3B82D1FD2462AEA
:1073F0001DD9641F1AE0A5F1B8024FF02E0C02FB54
:107400000CF24FF0500C92FBFCF2733C02EB640464
:1074100090F8EF244A39224414B290F8F024A52FB2
:1074200002EB610103D2C82D01D90A3424B21A79C2
:1074300082B35B7973B3763C224414B24B3928E0B3
:10744000BCF1230F0FD290F8EF246E3C02EBA404A2
:1074500090F8F024483902EBA10195B1B02D10D27B
:10746000641F24B20DE06E3C6210B83D90F8EF440A
:1074700002EBA502224414B290F8F024483902EB42
:1074800061011A7932B15B7923B1703C224414B2A4
:1074900046391944039A5542052295FBF2F302FB43
:1074A0001352521C01F1190352B29C4200DA1C46DD
:1074B00002F19F039C4202DC393B9C4200DA1C46ED
:1074C00002F16603994201DD194603E03D32914223
:1074D00000DA11463C4AB423127802EB820203EB35
:1074E0004205754518DD8C2303EB42034B4513DD44
:1074F000009A032A10D3B0F8DA242244A0F8DA2440
:10750000B0F8DC241144A0F8DC1490F8DE1400E09C
:1075100050E0491C80F8DE1429494268083940F2DD
:1075200046539A421ED33223B2FBF3F403FB1423D7
:10753000C3B90978042915D0052913D090F8DE14B1
:1075400006290AD3B0F8DA34B3FBF1F380F85630E9
:10755000B0F8DC34B3FBF1F102E0002180F8561002
:1075600080F85710B0F85010A0F85210A0F85060F2
:10757000962A1CD300224FF48D74002100EB4103A6
:10758000491CB3F85A5089B2A3F85850A142F5D912
:1075900000EB4201521CB1F8E034A0F88E32D0F872
:1075A000E81492B2491CC0F8E814042AE5D34168F3
:1075B000491C416009B00120BDE8F08F86FB030043
:1075C0005C2400208038010080FB030070B51C4C57
:1075D0002178022922D0616864234A68B2FBF3F55E
:1075E00003FB152303B92AB991F84815002915D0D2
:1075F000FA2814DA5821162000F070FA0C2000F056
:1076000056FA00F0F00040F00B010C2000F066FA92
:10761000606890F84815491C80F8481570BD7821BD
:10762000162000F05BFA0C2000F041FA40F00F0148
:107630000C2000F053FA6168002081F8480570BD05
:107640005424002010B58021012000F047FA2E219B
:107650000C2000F043FA2021852000F03FFA164864
:1076600001787F2000F03AFA1448007800F03F00DB
:1076700040F03001802000F031FA1148007800F02D
:10768000F801812000F02AFA0E480178822000F0EB
:1076900025FA0021852000F021FA02217A2000F04D
:1076A0001DFA7821162000F019FA0D21BDE81040CE
:1076B000172000F013BA00003B2400203C240020D7
:1076C0003D2400203E24002070B51D48012104788F
:1076D0001C4805787A2000F001FAF821012000F01A
:1076E000FDF919480078012802D1F02100F0F6F9DF
:1076F0006E210C2000F0F2F92021852000F0EEF937
:10770000124801787F2000F0E9F92146802000F03E
:10771000E5F92946812000F0E1F90D480178822041
:1077200000F0DCF90021852000F0D8F9682116204E
:1077300000F0D4F9BDE870400821172000F0CEB960
:107740003C2400203D24002082FB03003B24002039
:107750003E24002010B50821012000F0BFF980214F
:10776000022000F0BBF94E210C2000F0B7F988216F
:10777000162000F0B3F922210C2000F0AFF9F0211F
:10778000012000F0ABF902210C2000F0A7F9222122
:107790000C2000F0A3F9F021012000F09FF9022154
:1077A0000C2000F09BF922210C2000F097F9F02129
:1077B000012000F093F902210C2000F08FF9222122
:1077C0000C2000F08BF9F021012000F087F9022154
:1077D0000C2000F083F910BD10B57821162000F0C0
:1077E0007DF9D021012000F079F92E210C2000F044
:1077F00075F910BD10B5002400BF0BE0154A02EB6F
:1078000044025178134A12F8140000F067F900B1ED
:107810001EE0641C122CF1D30F480078B0B97F2011
:1078200000F045F90D490870802000F040F90C493E
:107830000870812000F03BF90A490870822000F0AE
:1078400036F909490870012003490870012010BD6C
:107850000020FCE75CFB03003A2400203B240020CE
:107860003C2400203D2400203E24002010B50221AD
:107870007A2000F033F98821012000F02FF96E21E1
:107880000C2000F02BF97821162000F027F90D21AB
:10789000BDE81040172000F021B9000010B52021EC
:1078A000852000F01BF91A4801787F2000F016F9B6
:1078B0001848007800F08F0040F03001802000F080
:1078C0000DF91548007800F0F801812000F006F964
:1078D00012480178822000F001F90021852000F093
:1078E000FDF802217A2000F0F9F88021012000F053
:1078F000F5F82E210C2000F0F1F87821162000F088
:10790000EDF80D21BDE81040172000F0E7B80000A9
:107910003B2400203C2400203D2400203E24002065
:107920002DE9F04104463B480F4606783A4806F0F8
:107930000F020578702000EA051040EA161105F0E4
:10794000F800022C02D0072C07D00AE049080B07E8
:1079500042EA136640EA111503E042F0F00640F0F7
:1079600007052021852000F0B9F82C4801787F20F8
:1079700000F0B4F83146802000F0B0F829468120AC
:1079800000F0ACF826480178822000F0A7F800212A
:10799000852000F0A3F800217A2000F09FF87821DC
:1079A000162000F09BF80D21172000F097F8B7B1D2
:1079B000062C08D0072C06D0052C0AD0042C4FF03A
:1079C000F00101D006E0F821012000F087F86F21D6
:1079D0001BE0F821012000F081F82F2115E0062C92
:1079E00008D0072C06D0052C0AD0042C4FF0D0016B
:1079F00001D006E0D821012000F070F86E2104E0EB
:107A0000D821012000F06AF82E21BDE8F0410C20B9
:107A100000F064B83C2400203D2400203B240020DA
:107A20003E24002038B5082000F041F88DF8000011
:107A30000D2000F03CF88DF801000E2000F037F822
:107A40008DF802009DF80000C0009DF8011040EA8A
:107A5000C1209DF8021001F00701084384B2B4F57B
:107A6000004F01DB47F6FF74204638BD38B50920CA
:107A700000F01DF88DF800000A2000F018F88DF8CD
:107A800001000F2000F013F88DF802009DF80000AF
:107A900000029DF8011001F00F0140EA01109DF86D
:107AA000021001F00F0140EA0104204638BD38B54C
:107AB000044621466846FDF7BBFB9DF8000038BD33
:107AC00070B5054CDDE9045620706170A270E3705A
:107AD0002571667170BD00005C24002070B50446FD
:107AE0000D4629462046FDF70FFC06460EB1012043
:107AF00070BD0020FCE730B503460C46002003E0D3
:107B0000255C1D54451CA8B29042F9DB30BD000035
:107B100070B5084900200DF041FD044600BF254620
:107B200035B100BF04A22F21284606F0A3FC00BFF8
:107B300000BF70BDBD9103002E2E5C6D6F75646C2F
:107B4000655C626174746572795C426174746572BB
:107B5000795F4144432E630070B506460C461546D6
:107B60000C4806600C4804800C48008810B10C4892
:107B7000006858B9BC2012F0C3F9002007490880FA
:107B80000749086003480068FCF79CFD054805703C
:107B900070BD0000542300205823002062230020E1
:107BA000502300206423002010B50246064B5A8162
:107BB0001973002005E00023034C24F81030431C07
:107BC000D8B20528F7DB10BD183F002070B5304E45
:107BD00030494FF4EA20FCF7F3FA04462E494FF4FB
:107BE000EC20FCF7EDFA054634B12A4801884FF441
:107BF000EA2000F0C0FB0446012D06D1264801888A
:107C00004FF4EC2000F0B7FB04464CB945B907200F
:107C10002049088020490880FCF7F0FA002070BD58
:107C2000A4B9012D12D11C4800884FF4EA2202EBBE
:107C3000402000F580516A023046FFF75CFF0720C4
:107C4000144908800020FCF73FFC1EE0012C11D1F4
:107C500085B9104800884FF4EA2202EB4021620205
:107C60003046FFF748FF07200B4908800120FCF74A
:107C70002BFC0AE0074800884FF4EA2202EB40217F
:107C80004FF400723046FFF736FF0120C7E70000CF
:107C9000007E002084210020862100202DE9F04173
:107CA000152001210A4600231D461E4600BF4FF045
:107CB000A04C674641EA420C4CEA830C4CEA052C86
:107CC0004CEA064807F5E06C4CF8208000BF00BF86
:107CD0000DF0B8FF012004F065F800244CE01520F9
:107CE0000DF01BFF052008F0EBFE9F21274803F055
:107CF00033FFFF21254803F02FFF25490860FF21AE
:107D0000224803F029FF2249096841EA002020495E
:107D10000860FF211D4803F01FFF1D49096841EA63
:107D200000401B49086015200DF08CFF642008F00E
:107D3000BBFE174800681749884213D014480068F2
:107D4000154988420ED0124800681449884209D06B
:107D50000F4800681249884204D00D480068114954
:107D6000884207D1012010490870002004F01AF859
:107D7000BDE8F081601CC4B20A2CB0DB00200A49C7
:107D8000087004F00FF800BFF2E700000030004078
:107D9000C42300206206130020201300EF301300DC
:107DA000E0401300EF401600C023002070B53C20D7
:107DB0001849487100200872012088710020C8719C
:107DC000154A0121154806F0BDFB044600BF2546B3
:107DD00035B100BF12A25021284606F04BFB00BF70
:107DE00000BF1A200DF030FE19200DF02DFE1C20D2
:107DF0000DF02AFE1B200DF027FE1B200DF0A3FE28
:107E00001C200DF0A0FE1A200DF09DFE19200DF093
:107E10009AFE70BD483F00202127030058FB030055
:107E20002E2E5C6D6F75646C655C73706F72745C24
:107E300068725C68725F6170702E63002DE9F041BA
:107E40000A2001210A4600231D461E4600BF4FF0AE
:107E5000A04C674641EA420C4CEA830C4CEA052CE4
:107E60004CEA064807F5E06C4CF8208000BF00BFE4
:107E70000DF027FE094A0121094806F063FB04467C
:107E800000BF254635B100BF06A240F28E2128462C
:107E900006F0F0FA00BFBDE8F0810000ED480300F5
:107EA00008D203006273702E6300000070B50025D5
:107EB000002103200DF050FD032109200DF04CFDA1
:107EC00000201149087003200DF06BFE0F49087067
:107ED000002407E0FDF7BCF80544642008F0E4FD49
:107EE000601CC4B20A2CF5DB0A20B5FBF0F0064991
:107EF0004880488808F054F8034988800879FBF7DF
:107F0000CBFD0149C88070BD9C220020AD2200201D
:107F1000034B1860034B1960034B1A607047000055
:107F20002C2300203023002034230020FF22027065
:107F3000002282728280C2800281002105E000233B
:107F400000F10B0253544A1CD1B23C29F7DB7047B5
:107F500000B503214FF49670FFF726FE002001497B
:107F6000087000BD7C23002010B54FF6FF70234938
:107F700008800020224908600C220021214802F0DC
:107F80004DFE20480078AA2837D11E484078552851
:107F900033D11C4880781A490860084600680002FE
:107FA00008601848C0780968084315490860084601
:107FB0000068000208601348007909680843104906
:107FC000086008460068000208600E4840790968A9
:107FD00008430B4908600B48007A084908800846A6
:107FE00000884FF6FF7101EA002004490880054827
:107FF000407A098808430149088010BD60230020A9
:108000005C230020143E00207CB568460AF0B0F9DD
:1080100000242A20704908709DF8040048709DF8DB
:10802000050088706D484079C8706C488079087187
:108030006A48C07948710020887169480088001238
:10804000C87167480078087209216348FBF7F2FDA0
:10805000614948720A214FF4C86002F067FF00B915
:108060007CBD09215F48FBF7E5FD5E49497A8842FE
:1080700000D0F5E75B480078402806D043283CD084
:10808000442861D0452873D163E05648C57800790B
:1080900000EB05255348407900EB052551488079D0
:1080A000514908804F48C079097800EB01204E49BA
:1080B00008804E48056000204D4908604D49087011
:1080C0004A48006800F4000050B14548008846491D
:1080D0000988884204D148A1002002F071FC48E0E0
:1080E0002846FCF7EFFA00B943E03E49087A04F06D
:1080F00045FB0D2002F04AFF3BE03A48807928B961
:108100000121464801750221C1771BE0354880797D
:10811000012805D10121414801750021C17711E0F5
:1081200030488079022805D101213C48017504219D
:10813000C17707E02B488079032803D10221374813
:10814000C1770175012414E026488079344908700C
:108150000FE02448C478007900EB042421484079DA
:1081600000EB04241F48807900EB042401E0FFE7C2
:1081700000BF00BF6CB31B480078174908709DF81A
:10818000040048709DF805008870200EC870200C0F
:108190000871200A48718C7109210F48FBF74AFDCC
:1081A0000D494872002609E00A210B4802F070F9D7
:1081B0004FF4967008F084FC701CC6B2032EF3DBFB
:1081C00008480078432804D116A20021184806F078
:1081D00051F900BF44E70000D43D00200034020004
:1081E00060230020F43D0020582300205423002069
:1081F000502300205B23002075692066696C652090
:1082000073616D6520746F206265666F7265202CE6
:1082100072657475726E0D0A00000000007E002009
:108220005A230020726669647265736574000000E9
:10823000BCBBBBBB044800884FF6FF71884201D12C
:10824000002070470120FCE7102300200246108820
:10825000032813DC907800F0010078B1908803289F
:108260000CDC907900F0010040B11089032805DC96
:10827000907A00F0010008B10120704708880328B7
:1082800013DC887800F0010078B1908803280CDCBA
:10829000907900F0010040B11088032805DC907847
:1082A00000F0010008B10120E7E70888032813DC8B
:1082B000887800F0010078B1888803280CDC887980
:1082C00000F0010040B11088032805DC907800F030
:1082D000010008B10120D0E70020CEE770B50446C8
:1082E00001250322E11C0348FAF7DCFF00B1002559
:1082F000284670BD0334020010B502460B4600212B
:10830000002400BF15E002EB8100807800F001003E
:1083100030B102EB81000088032801DC601CC4B28C
:1083200002EB81000088B0F5FA7F00DB0024481CD6
:10833000C1B20329E7DB002115E003EB810080785F
:1083400000F0010030B103EB81000088032801DC5C
:10835000601CC4B203EB81000088B0F5FA7F00DB3B
:108360000024481CC1B20229E7DB022C01DD0120F8
:1083700010BD0020FCE7F0B5ADF5007D06460C46CB
:10838000002706EB44214FF400726846FFF7B3FB69
:10839000002503E01DF8050047406D1CB5F5007F82
:1083A000F8D31FB901200DF5007DF0BD0020FAE7DC
:1083B000F0B5ADF5017D054600240120FCF7CEF8AF
:1083C0005F237F220021084600F025FA4FF4405732
:1083D000012012F0E1FB002610E02A122046641C66
:1083E00001A90A542046641C0D54B4F5007F04D33F
:1083F000A1B201A80BF09CFE0024761CBE42ECD377
:1084000024B1A1B201A80BF093FE0024002012F0C9
:10841000C3FB0020FCF7A2F80DF5017DF0BD7CB593
:1084200004460D4616460B200DF082FB02200DF08F
:108430007FFB2A208DF80000012168460BF078FEB2
:1084400002200DF00AFC00208DF80000E0B28DF84B
:10845000010000208DF80200E0B28DF80300042135
:1084600068460BF065FE02200DF062FB2B208DF8B4
:108470000000012168460BF05BFE02200DF0EDFBD1
:1084800000208DF80000E8B28DF8010000208DF882
:108490000200E8B28DF80300042168460BF048FEA4
:1084A00002200DF045FB2C208DF8000001216846CC
:1084B0000BF03EFE02200DF0D0FB30128DF80400D0
:1084C000F0B28DF80500022101A80BF031FE0B205F
:1084D0000DF0C3FB02200DF0C0FB7CBD10B51D20CC
:1084E0000DF09AFA1D200DF023FB08200DF094FAF0
:1084F00008200DF01DFB06200DF08EFA06200DF071
:10850000ACFB02200DF088FA02200DF011FB0B20CD
:108510000DF082FA0B200DF0A0FB0C200DF07CFA80
:108520000C200DF09AFB10BD10B5FFF7D7FF00F03F
:108530005EF9782008F0B8FA0120FCF70FF8002166
:10854000112000F0BBF9782008F0AEFA00212820B5
:1085500000F0B4F90C200DF0EBFA0021B12000F08E
:10856000ADF90121084600F0A9F901212C2000F005
:10857000A5F901212D2000F0A1F90021B22000F081
:108580009DF90121084600F099F901212C2000F005
:1085900095F901212D2000F091F90021B32000F080
:1085A0008DF90121084600F089F901212C2000F005
:1085B00085F901212D2000F081F90121084600F004
:1085C0007DF901212C2000F079F901212D2000F006
:1085D00075F90021B42000F071F90121032000F0A9
:1085E0006DF90021B62000F069F90121B42000F0F6
:1085F00065F90121F02000F061F90021C02000F0B0
:108600005DF90121A22000F059F90121022000F0BA
:1086100055F90121842000F051F90021C12000F01A
:108620004DF90121C52000F049F90021C22000F0D8
:1086300045F901210A2000F041F90121002000F054
:108640003DF90021C32000F039F901218A2000F012
:1086500035F901212A2000F031F90021C42000F071
:108660002DF901218A2000F029F90121EE2000F0E6
:1086700025F90021C52000F021F901210A2000F090
:108680001DF90021362000F019F90121C82000F061
:1086900015F90021E02000F011F90121022000F07D
:1086A0000DF901211C2000F009F90121072000F03B
:1086B00005F90121122000F001F90121372000F015
:1086C000FDF80121322000F0F9F80121292000F005
:1086D000F5F801212D2000F0F1F80121292000F00A
:1086E000EDF80121252000F0E9F801212B2000F010
:1086F000E5F80121392000F0E1F80121002000F027
:10870000DDF80121084600F0D9F80121032000F02E
:10871000D5F80121102000F0D1F80021E12000F06F
:10872000CDF80121032000F0C9F801211D2000F03F
:10873000C5F80121072000F0C1F80121062000F052
:10874000BDF801212E2000F0B9F801212C2000F005
:10875000B5F80121292000F0B1F801212D2000F009
:10876000ADF801212E2000F0A9F801212E2000F003
:10877000A5F80121372000F0A1F801213F2000F0E9
:108780009DF80121002000F099F80121002000F05F
:1087900095F80121022000F091F80121102000F04D
:1087A0008DF80021F02000F089F80121084600F042
:1087B00085F80021F62000F081F80121002000F06A
:1087C0007DF800213A2000F079F80121052000F021
:1087D00075F80020FBF7C2FE01200DF063FB4FF49B
:1087E0007840FFF7E5FD00200DF05CFB10BD10B5F3
:1087F0000B200DF032FA06200DF02FFA06200DF0B6
:1088000097F9642008F050F906200DF026FA32207E
:1088100008F04AF910BDF8B507460C4615461E4645
:108820000B200DF085F902200DF082F92A208DF839
:108830000000012168460BF07BFC02200DF00DFAD0
:1088400000208DF80000F8B28DF8010000208DF8AE
:108850000200E8B28DF80300042168460BF068FCC2
:1088600002200DF065F92B208DF8000001216846EB
:108870000BF05EFC02200DF0F0F900208DF80000F6
:10888000E0B28DF8010000208DF80200F0B28DF802
:108890000300042168460BF04BFC02200DF048F960
:1088A0002C208DF80000012168460BF041FC0220CD
:1088B0000DF0D3F90B200DF0D0F9F8BD13B50C462F
:1088C00014B902200DF034F90B200DF031F901211B
:1088D00068460BF02DFC0B200DF0BFF902200DF0C7
:1088E000BCF91CBD38B50446042C2AD169462E209B
:1088F00000F04BF908B9002038BD9DF8000000F0E9
:108900001F0000909DF8000000909DF800102E20A0
:1089100000F07AFA08B90020EEE76946242000F05A
:1089200034F908B90020E7E79DF8000000F0BF0027
:1089300000909DF80010242000F066FA08B900208D
:10894000DAE794BB6946242000F01FF908B900203B
:10895000D2E79DF8000000F0BF0000909DF80000F5
:1089600040F0400000909DF80010242000F04CFAE8
:1089700008B90020C0E769462E2000F006F908B9C2
:108980000020B9E79DF8000000F01F0000909DF85E
:10899000000040EA8410C0B200909DF800102E2024
:1089A00000F032FA08B90020A6E7FFE7012C32D127
:1089B0006946242000F0E9F808B900209CE79DF8FA
:1089C000000000F0BF0000909DF8000040F0400063
:1089D00000909DF80010242000F016FA08B900203D
:1089E0008AE769462E2000F0D0F808B9002083E716
:1089F0009DF8000000F01F0000909DF8000040EA84
:108A00008410C0B200909DF800102E2000F0FCF9F8
:108A100008B9002070E7022C32D16946242000F00A
:108A2000B4F808B9002067E79DF8000000F0BF0027
:108A300000909DF8000040F0400000909DF800106C
:108A4000242000F0E1F908B9002055E769462E20FE
:108A500000F09BF808B900204EE79DF8000000F0F8
:108A60001F0000909DF8000040EA8410C0B2009002
:108A70009DF800102E2000F0C7F908B900203BE750
:108A8000032C32D16946242000F07FF808B9002079
:108A900032E79DF8000000F0BF0000909DF8000054
:108AA00040F0400000909DF80010242000F0ACF948
:108AB00008B9002020E769462E2000F066F808B9C2
:108AC000002019E79DF8000000F01F0000909DF8BD
:108AD000000040EA8410C0B200909DF800102E20E3
