:020000040007F3
:10F000009041002055F207005DF207005FF2070013
:10F0100061F2070063F2070065F2070000000000DC
:10F0200000000000000000000000000067F2070080
:10F0300069F20700000000006BF207006DF20700A4
:10F040006FF207006FF207006FF207006FF2070020
:10F050006FF207006FF207006FF207006FF2070010
:10F060006FF207006FF207006FF207006FF2070000
:10F070006FF207006FF207006FF207006FF20700F0
:10F080006FF207006FF207006FF207006FF20700E0
:10F090006FF207006FF207006FF207006FF20700D0
:10F0A0006FF207006FF207006FF207006FF20700C0
:10F0B0006FF207006FF20700000000000000000080
:10F0C0006FF207006FF207006FF207006FF20700A0
:10F0D0006FF207006FF207006FF2070000000000F8
:10F0E0000000000000000000000000000000000020
:10F0F0000000000000000000000000000000000010
:10F1000000000000000000000000000000000000FF
:10F1100000000000000000000000000000000000EF
:10F1200000000000000000000000000000000000DF
:10F1300000000000000000000000000000000000CF
:10F1400000000000000000000000000000000000BF
:10F1500000000000000000000000000000000000AF
:10F16000000000000000000000000000000000009F
:10F17000000000000000000000000000000000008F
:10F18000000000000000000000000000000000007F
:10F19000000000000000000000000000000000006F
:10F1A000000000000000000000000000000000005F
:10F1B000000000000000000000000000000000004F
:10F1C000000000000000000000000000000000003F
:10F1D000000000000000000000000000000000002F
:10F1E000000000000000000000000000000000001F
:10F1F000000000000000000000000000000000000F
:10F20000DFF80CD000F038F800480047E1F90700BB
:10F2100090410020056885F308884068FF2464B2A7
:10F22000EFF30585002D07D1EFF3148102229143FE
:10F2300081F31488A64600472546064621273FBA93
:10F24000F0B40024002500260027F0B4F92040B2D5
:10F25000004700000648804706480047FEE7FEE7F3
:10F26000FEE7FEE7FEE7FEE7FEE7FEE7FEE7FEE776
:10F27000ADF3070001F20700064C074D06E0E06819
:10F2800040F0010394E8070098471034AC42F6D3ED
:10F29000FFF7BAFFACFA0700CCFA070070B50B46CF
:10F2A0001446002111E05A5C504000250AE010F09D
:10F2B000010F04D040104AF20106704000E04010F7
:10F2C0006E1CF5B2082DF2DB491CA142EBD30612ED
:10F2D00006EB0026B0B270BD0EB500200090019084
:10F2E00002900C21684600F0D5F90EBD02200C49B1
:10F2F000086000BF0B4800680028FBD001200849C7
:10F300001031086000BF074800680028FBD00020CB
:10F310000349086000BF034800680028FBD070471D
:10F3200004E5014000E40140184988780006184AC5
:10F330001060C878126842EA0040154A10600879E7
:10F34000126842EA0020124A10604879126810439D
:10F350000F4A1060887900020E4A1080C87912881E
:10F3600010430C4A1080087A00020B4A1080487A39
:10F3700012881043084A10800878AA2802D14878D9
:10F38000552801D0002070470120FCE780100010B4
:10F39000802100208621002084210020014802498C
:10F3A000086070470090D0038821002010B500F05D
:10F3B000E7F928B172480088C0F304207149086059
:10F3C00000F008FA10B170487049486700F01AFA66
:10F3D00028B16F480068C0F342306E49086000F001
:10F3E0003BFA28B16C48006820F080706A490860D8
:10F3F00000F04AFA40B10020684908604FF08041AF
:10F40000C1F810016649086000F068FA18B10320DD
:10F4100060496431086000F079FA68B105206149FB
:10F42000086001205F497831086000205D4908319B
:10F4300008603F20091F086000F080FA002852D0C1
:10F440004F48E0300068584908605848006801F1AA
:10F45000040108605648006801F10401086055483D
:10F46000006801F1040108605348006801F10401DB
:10F4700008605248006801F10401086050480068C3
:10F48000504908605048006801F1040108604F4885
:10F49000006801F1040108604D48006801F10401B1
:10F4A00008604C48006801F1040108604A4800689F
:10F4B00001F1040108604948006849490860494869
:10F4C000006801F1040108604748006801F1040187
:10F4D00008604648006801F104010860444800687B
:10F4E00001F10401086000F021F928B141480068E9
:10F4F00000F04F00404908604048006840F4700048
:10F500003E490860BFF34F8FBFF36F8F3C480068E0
:10F5100010F0010F30D001203A49086000BF3A488E
:10F5200000680028FBD03648006820F001004FF04A
:10F530001021C1F80C0200BF334800680028FBD03E
:10F540004FF000002F49086000BF2F4800680028D6
:10F55000FBD000BFBFF34F8F2C48006800F4E06081
:10F560002B4940EA010000F1040028490860BFF37C
:10F570004F8F00BF00BFFEE7FFF710FF10BD000078
:10F5800024030010403501400DF0ADBA00C0074023
:10F59000440200103C050040FCED00E00C0100407E
:10F5A000380500401056004020C5004008040010F7
:10F5B0000C040010100400101404001018040010B3
:10F5C0001C04001040C5004020040010240400105A
:10F5D000280400102C040010300400103404001023
:10F5E00060C50040380400103C04001040040010C6
:10F5F0004404001058020010E40E004088ED00E0C2
:10F600000C12001004E5014000E401400CED00E0A4
:10F610000000FA052DE9F0414FF48C277E101448C4
:10F620000068050B124800880005000D00D06D1C15
:10F63000002404E006EB043000F098F9641CAC42AE
:10F64000F8D30B48006885080948007810F0030FCC
:10F6500000D06D1C002407E057F82410A20002F52A
:10F660000C3000F0A1F9641CAC42F5D3BDE8F08188
:10F670008021002002E008C8121F08C1002AFAD128
:10F6800070477047002001E001C1121F002AFBD122
:10F69000704700007FB504460D464FF010204669C4
:10F6A0004FF4FE2000900C2D1BD1FFF71FFE2068A9
:10F6B000019060680290A06803900F48009900F0E4
:10F6C00073F90D486C30019900F06EF90A487030FA
:10F6D000029900F069F908487430039900F064F960
:10F6E00008E0B6F5FE2F05D0FFF700FE02480099AE
:10F6F00000F05AF97FBD00001410001030B54FF62D
:10F70000FF7408484FF40C3102682046FFF7C6FD2D
:10F71000054605480088854201D1012030BD002002
:10F72000FCE700008021002084210020134800789D
:10F73000062820D11148001D007810F00F0F1AD1B3
:10F740000E480830007800F0F000302801D1012088
:10F7500070470A480830007800F0F000402801D1D6
:10F760000120F5E705480830007800F0F000502847
:10F7700001D10120ECE70020EAE70000E00F00F0F3
:10F7800013480078062820D11148001D007810F099
:10F790000F0F1AD10E480830007800F0F000302822
:10F7A00001D1012070470A480830007800F0F000CD
:10F7B000402801D10120F5E705480830007800F025
:10F7C000F000502801D10120ECE70020EAE700001A
:10F7D000E00F00F00A48007806280ED10848001D06
:10F7E000007810F00F0F08D105480830007800F0BD
:10F7F000F000302801D1012070470020FCE7000014
:10F80000E00F00F013480078062820D11148001DB1
:10F81000007810F00F0F1AD10E480830007800F071
:10F82000F000302801D1012070470A4808300078E4
:10F8300000F0F000402801D10120F5E7054808302C
:10F84000007800F0F000502801D10120ECE7002002
:10F85000EAE70000E00F00F00A48007806280ED121
:10F860000848001D007810F00F0F08D10548083037
:10F87000007800F0F000302801D10120704700200E
:10F88000FCE70000E00F00F013480078062820D1C4
:10F890001148001D007810F00F0F1AD10E480830E3
:10F8A000007800F0F000302801D1012070470A48AC
:10F8B0000830007800F0F000402801D10120F5E781
:10F8C00005480830007800F0F000502801D10120F0
:10F8D000ECE70020EAE70000E00F00F00A480078BB
:10F8E00006280ED10848001D007810F00F0F08D12F
:10F8F00005480830007800F0F000302801D10120E0
:10F9000070470020FCE70000E00F00F00A48007894
:10F9100006280ED10848001D007810F00F0F08D1FE
:10F9200005480830007800F0F000302801D10120AF
:10F9300070470020FCE70000E00F00F00A48007864
:10F9400006280ED10848001D007810F00F0F08D1CE
:10F9500005480830007800F0F000502801D101205F
:10F9600070470020FCE70000E00F00F002210C4A85
:10F97000116000BF0B4909680029FBD00849091D27
:10F98000086000BF074909680029FBD00021044A2C
:10F99000116000BF034909680029FBD070470000CF
:10F9A00004E5014000E4014001220B4B1A6000BF56
:10F9B0000A4A1268002AFBD0016000BF074A126899
:10F9C000002AFBD00022044B1A6000BF034A1268D1
:10F9D000002AFBD07047000004E5014000E401402C
:10F9E00010B50024FFF7A0FC70B100BF00BFFFF707
:10F9F00011FE601CC4B2FFF781FE08B9032CF6DBD0
:10FA0000032C01DAFFF768FC4FF40C3000F002F829
:10FA1000002010BD70B5054600F01AF8044604B188
:10FA200070BD4FF0FF300849086001460748C0F834
:10FA30008410284613DF044604B1F1E72846FFF797
:10FA4000E9FB00BFECE7000080E100E000E100E03E
:10FA50001FB5054B0FCB8DE80F00684618DF044635
:10FA6000204604B010BD00007CFA07000100000031
:10FA70000000000000000000000000000200000084
:10FA80000000000000000000000000000300000073
:10FA90000000000000000000000000000400000062
:10FAA000000000000000000000000000CCFA070089
:10FAB000802100200C00000074F60700D8FA07002F
:10FAC0008C2100200420000084F6070000000000C4
:08FAD000000000000090D003CB
:040000050007F201FD
:00000001FF
